:020000040800F2
:1000000000040020490200084B0200084B020008CF
:100010004B0200084B0200084B0200084B0200088C
:100020004B0200084B0200084B0200081190000828
:100030004B0200084B0200084B020008F15F000869
:100040004B0200084B0200084B0200084B0200085C
:100050004B0200084B0200084B0200084B0200084C
:100060004B0200084B0200084B020008914C0008AC
:10007000B14C0008D14C0008F14C0008114D0008AB
:10008000314D0008514D00084B0200084B0200089A
:10009000416C00084B0200084B0200084B020008AC
:1000A0004B0200084B0200084B0200084B020008FC
:1000B000516000087160000891600008515A000802
:1000C000715A0008B15A0008D15A00084B020008C2
:1000D0004B0200084B0200084B020008A166000812
:1000E0004B0200084B0200084B0200084B020008BC
:1000F0004B0200084B0200084B0200084B020008AC
:100100004B0200084B0200084B0200084B0200089B
:100110004B0200084B0200084B0200084B0200088B
:100120004B0200084B0200084B0200084B0200087B
:100130004B0200084B0200084B0200084B0200086B
:100140004B0200084B0200084B0200084B0200085B
:100150004B0200084B0200084B0200084B0200084B
:0401600081A1000871
:1001700072B6264880F30888254880F30988254808
:1001800025490860022080F31488BFF36F8F01F0C7
:100190001FFA07F095F84FF0553020491B4A91425D
:1001A0003CBF41F8040BFAE71D49194A91423CBF94
:1001B00041F8040BFAE71B491B4A1C4B9A423EBF0D
:1001C00051F8040B42F8040BF8E700201849194ACB
:1001D00091423CBF41F8040BFAE701F011FA01F03B
:1001E000FFF9154C154DAC4203DA54F8041B88474F
:1001F000F9E709F0EDFE124C124DAC4203DA54F867
:10020000041B8847F9E701F0F3B90000000400205F
:10021000000800200000000808ED00E000000020B9
:1002200000040020F0AC000800080020600D002051
:10023000600D0020101C002060010008640100080F
:10024000640100086401000892E700F000F8FEE78E
:100250002DE9F04FC1F80CD0C3689D46BDE8F08F82
:1002600007F0E6F8002383F311882846A047002012
:1002700008F04EF9FEE707F0B3F807F091FD07F03C
:10028000D7F800DFFEE7000070B54FF0FF0C4CF42C
:10029000E06C1CEA11541DBF1CEA135594EA0C0FC4
:1002A00095EA0C0F00F0DEF82C4481EA030621EAFF
:1002B0004C5123EA4C5350EA013518BF52EA03353A
:1002C00041F4801143F4801338D0A0FB02CE4FF0EC
:1002D0000005E1FB02E506F00042E0FB03E54FF01C
:1002E0000006E1FB03569CF0000F18BF4EF0010E14
:1002F000A4F1FF04B6F5007F64F5407404D25FEA10
:100300004E0E6D4146EB060642EAC62141EA5551C2
:100310004FEAC52040EA5E504FEACE2EB4F1FD0C04
:1003200088BFBCF5E06F1ED8BEF1004F08BF5FEA82
:10033000500E50F1000041EB045170BD06F0004634
:1003400046EA010140EA020081EA0301B4EB5C04E1
:10035000C2BFD4EB0C0541EA045170BD41F48011D9
:100360004FF0000E013C00F3AB8014F1360FDEBFFE
:10037000002001F0004170BDC4F10004203C35DADA
:100380000C341BDC04F11404C4F1200500FA05F35D
:1003900020FA04F001FA05F240EA020001F00042FE
:1003A00021F0004110EBD37021FA04F642EB060174
:1003B0005EEA430E08BF20EAD37070BDC4F10C049E
:1003C000C4F1200500FA04F320FA05F001FA04F262
:1003D00040EA020001F0004110EBD37041F100014E
:1003E0005EEA430E08BF20EAD37070BDC4F1200559
:1003F00000FA05F24EEA020E20FA04F301FA05F2C1
:1004000043EA020321FA04F001F0004121FA04F268
:1004100020EA020000EBD3705EEA430E08BF20EA38
:10042000D37070BD94F0000F0FD101F00046400072
:1004300041EB010111F4801F08BF013CF7D041EAF4
:10044000060195F0000F18BF704703F000465200F8
:1004500043EB030313F4801F08BF013DF7D043EAC9
:100460000603704794EA0C0F0CEA135518BF95EA7F
:100470000C0F0CD050EA410618BF52EA4306D1D106
:1004800081EA030101F000414FF0000070BD50EA25
:10049000410606BF1046194652EA430619D094EAAF
:1004A0000C0F02D150EA013613D195EA0C0F05D199
:1004B00052EA03361CBF104619460AD181EA0301ED
:1004C00001F0004141F0FE4141F470014FF00000A5
:1004D00070BD41F0FE4141F4780170BD70B54FF040
:1004E000FF0C4CF4E06C1CEA11541DBF1CEA1355C0
:1004F00094EA0C0F95EA0C0F00F0A7F8A4EB0504A2
:1005000081EA030E52EA03354FEA013100F0888098
:100510004FEA03334FF0805545EA131343EA126361
:100520004FEA022245EA111545EA10654FEA002616
:100530000EF000419D4208BF964244F1FD0404F5CF
:10054000407402D25B084FEA3202B61A65EB03052B
:100550005B084FEA32024FF480104FF4002CB6EBE8
:10056000020E75EB030E22BFB61A754640EA0C0068
:100570005B084FEA3202B6EB020E75EB030E22BFA8
:10058000B61A754640EA5C005B084FEA3202B6EBE9
:10059000020E75EB030E22BFB61A754640EA9C00A8
:1005A0005B084FEA3202B6EB020E75EB030E22BF78
:1005B000B61A754640EADC0055EA060E18D04FEA36
:1005C000051545EA16754FEA06164FEAC30343EAD6
:1005D00052734FEAC2025FEA1C1CC0D111F4801FA3
:1005E0000BD141EA00014FF000004FF0004CB6E79C
:1005F00011F4801F04BF01430020B4F1FD0C88BF3B
:10060000BCF5E06F3FF6AFAEB5EB030C04BFB6EB45
:10061000020C5FEA500C50F1000041EB045170BD38
:100620000EF0004E4EEA113114EB5C04C2BFD4EB65
:100630000C0541EA045170BD41F480114FF0000EE9
:10064000013C90E645EA060E8DE60CEA135594EA65
:100650000C0F08BF95EA0C0F3FF43BAF94EA0C0F68
:100660000AD150EA01347FF434AF95EA0C0F7FF4DD
:1006700025AF104619462CE795EA0C0F06D152EA31
:1006800003353FF4FDAE1046194622E750EA410615
:1006900018BF52EA43067FF4C5AE50EA41047FF426
:1006A0000DAF52EA43057FF4EBAE12E74FF0FF3C8B
:1006B00006E000BF4FF0010C02E000BF4FF0010C5C
:1006C0004DF804CD4FEA410C7FEA6C5C4FEA430CD5
:1006D00018BF7FEA6C5C1BD001B050EA410C0CBF24
:1006E00052EA430C91EA030F02BF90EA020F002086
:1006F000704710F1000F91EA030F58BF994208BFED
:1007000090422CBFD8176FEAE37040F001007047A9
:100710004FEA410C7FEA6C5C02D150EA013C07D100
:100720004FEA430C7FEA6C5CD6D152EA033CD3D04B
:100730005DF8040B704700BF8446104662468C4645
:100740001946634600E000BF01B5FFF7B7FF002878
:1007500048BF10F1000F01BD4DF808EDFFF7F4FFA1
:100760000CBF012000205DF808FB00BF4DF808ED2C
:10077000FFF7EAFF34BF012000205DF808FB00BF4F
:100780004DF808EDFFF7E0FF94BF012000205DF871
:1007900008FB00BF4DF808EDFFF7CEFF94BF012026
:1007A00000205DF808FB00BF4DF808EDFFF7C4FF1F
:1007B00034BF012000205DF808FB00BF4FEA410C68
:1007C0007FEA6C5C02D150EA013C0AD14FEA430C4B
:1007D0007FEA6C5C02D152EA033C02D14FF0000088
:1007E00070474FF00100704781F0004102E000BF08
:1007F00083F0004330B54FEA41044FEA430594EAE1
:10080000050F08BF90EA020F1FBF54EA000C55EA1B
:10081000020C7FEA645C7FEA655C00F0E2804FEAEC
:100820005454D4EB5555B8BF6D420CDD2C4480EACE
:10083000020281EA030382EA000083EA010180EAFE
:10084000020281EA0303362D88BF30BD11F0004F4C
:100850004FEA01314FF4801C4CEA113102D0404282
:1008600061EB410113F0004F4FEA03334CEA1333BD
:1008700002D0524263EB430394EA050F00F0A780D5
:10088000A4F10104D5F1200E0DDB02FA0EFC22FAD0
:1008900005F2801841F1000103FA0EF2801843FAC4
:1008A00005F359410EE0A5F120050EF1200E012AB5
:1008B00003FA0EFC28BF4CF0020C43FA05F3C018F3
:1008C00051EBE37101F0004507D54FF0000EDCF16C
:1008D000000C7EEB00006EEB0101B1F5801F1BD315
:1008E000B1F5001F0CD349085FEA30004FEA3C0C19
:1008F00004F101044FEA445212F5800F80F09A800F
:10090000BCF1004F08BF5FEA500C50F1000041EB12
:10091000045141EA050130BD5FEA4C0C404141EB16
:100920000101013C28BFB1F5801FE9D291F0000F11
:1009300004BF01460020B1FA81F308BF2033A3F1C0
:100940000B03B3F120020CDA0C3208DD02F1140CB7
:10095000C2F10C0201FA0CF021FA02F10CE002F1F2
:100960001402D8BFC2F1200C01FA02F120FA0CFCEB
:10097000DCBF41EA0C019040E41AA2BF01EB045134
:10098000294330BD6FEA04041F3C1CDA0C340EDC32
:1009900004F11404C4F1200220FA04F001FA02F375
:1009A00040EA030021FA04F345EA030130BDC4F133
:1009B0000C04C4F1200220FA02F001FA04F340EA28
:1009C0000300294630BD21FA04F0294630BD94F0D9
:1009D000000F83F4801306BF81F480110134013DC0
:1009E0004EE77FEA645C18BF7FEA655C29D094EA31
:1009F000050F08BF90EA020F05D054EA000C04BFAF
:100A00001946104630BD91EA030F1EBF0021002099
:100A100030BD5FEA545C05D14000494128BF41F038
:100A2000004130BD14F580043CBF01F5801130BD9C
:100A300001F0004545F0FE4141F470014FF0000027
:100A400030BD7FEA645C1ABF194610467FEA655CD8
:100A50001CBF0B46024650EA013406BF52EA03357A
:100A600091EA030F41F4002130BD00BF90F0000F68
:100A700004BF0021704730B54FF4806404F13204A4
:100A80004FF000054FF0000150E700BF90F0000F5D
:100A900004BF0021704730B54FF4806404F1320484
:100AA00010F0004548BF40424FF000013EE700BF54
:100AB00042004FEAE2014FEA31014FEA02701FBFE4
:100AC00012F07F4393F07F4F81F06051704732F016
:100AD0007F4208BF704793F07F4F04BF41F400216D
:100AE000704730B54FF4607401F0004521F00041CB
:100AF0001CE700BF50EA010208BF704730B54FF055
:100B000000050AE050EA010208BF704730B511F055
:100B1000004502D5404261EB41014FF4806404F18D
:100B200032045FEA915C3FF4D8AE4FF003025FEA13
:100B3000DC0C18BF03325FEADC0C18BF033202EB97
:100B4000DC02C2F1200300FA03FC20FA02F001FAF1
:100B500003FE40EA0E0021FA02F11444BDE600BF94
:100B60004FEA4102B2F1E04324BFB3F5001CDCF1CF
:100B7000FE5C0DD901F0004C4FEAC0024CEA507007
:100B8000B2F1004F40EB830008BF20F00100704736
:100B900011F0804F21D113F13872BCBF01F0004039
:100BA000704741F480114FEA5252C2F11802C2F16B
:100BB000200C10FA0CF320FA02F018BF40F00100EC
:100BC0004FEAC1234FEAD32303FA0CFC40EA0C009E
:100BD00023FA02F34FEA4303CCE77FEA625307D1DB
:100BE00050EA01331EBF4FF0FE4040F44000704712
:100BF00001F0004040F0FE4040F40000704700BFAC
:100C000080F0004002E000BF81F0004142001FBFC1
:100C10005FEA410392EA030F7FEA226C7FEA236CCA
:100C20006AD04FEA1262D2EB1363C1BFD2184140BF
:100C300048404140B8BF5B42192B88BF704710F055
:100C4000004F40F4000020F07F4018BF404211F0F8
:100C5000004F41F4000121F07F4118BF494292EA60
:100C6000030F3FD0A2F1010241FA03FC10EB0C008C
:100C7000C3F1200301FA03F100F0004302D5494219
:100C800060EB4000B0F5000F13D3B0F1807F06D3C6
:100C900040084FEA310102F10102FE2A51D2B1F1BE
:100CA000004F40EBC25008BF20F0010040EA0300B3
:100CB0007047490040EB0000013A28BFB0F5000F33
:100CC000EDD2B0FA80FCACF1080CB2EB0C0200FAE9
:100CD0000CF0AABF00EBC25052421843BCBFD04038
:100CE0001843704792F0000F81F4000106BF80F4B2
:100CF00000000132013BB5E74FEA41037FEA226C75
:100D000018BF7FEA236C21D092EA030F04D092F03F
:100D1000000F08BF0846704790EA010F1CBF002073
:100D2000704712F07F4F04D1400028BF40F00040D0
:100D3000704712F100723CBF00F50000704700F0F0
:100D4000004343F0FE4040F4000070477FEA226217
:100D500016BF08467FEA23630146420206BF5FEAE8
:100D6000412390EA010F40F4800070474FF00003E8
:100D700004E000BF10F0004348BF40425FEA000CAF
:100D800008BF704743F0964301464FF000001CE057
:100D900050EA010208BF70474FF000030AE000BFAD
:100DA00050EA010208BF704711F0004302D54042EB
:100DB00061EB41015FEA010C02BF8446014600205D
:100DC00043F0B64308BFA3F18053A3F50003BCFA78
:100DD0008CF2083AA3EBC25310DB01FA02FC634425
:100DE00000FA02FCC2F12002BCF1004F20FA02F22C
:100DF00043EB020008BF20F00100704702F120021F
:100E000001FA02FCC2F1200250EA4C0021FA02F27F
:100E100043EB020008BF20EADC7070474FF0FF0C84
:100E20001CEAD0521EBF1CEAD15392EA0C0F93EA7F
:100E30000C0F6FD01A4480EA010C400218BF5FEA21
:100E400041211ED04FF0006343EA501043EA511194
:100E5000A0FB01310CF00040B1F5000F3EBF49008E
:100E600041EAD3715B0040EA010062F17F02FD2A92
:100E70001DD8B3F1004F40EBC25008BF20F0010075
:100E8000704790F0000F0CF0004C08BF49024CEA8C
:100E9000502040EA51207F3AC2BFD2F1FF0340EA1E
:100EA000C250704740F400004FF00003013A5DDC8F
:100EB00012F1190FDCBF00F000407047C2F10002D0
:100EC000410021FA02F1C2F1200200FA02FC5FEABD
:100ED000310040F1000053EA4C0308BF20EADC7007
:100EE000704792F0000F00F0004C02BF400010F479
:100EF000000F013AF9D040EA0C0093F0000F01F026
:100F0000004C02BF490011F4000F013BF9D041EA47
:100F10000C018FE70CEAD15392EA0C0F18BF93EA49
:100F20000C0F0AD030F0004C18BF31F0004CD8D173
:100F300080EA010000F00040704790F0000F17BFFA
:100F400090F0004F084691F0000F91F0004F14D040
:100F500092EA0C0F01D142020FD193EA0C0F03D198
:100F60004B0218BF084608D180EA010000F000409B
:100F700040F0FE4040F40000704740F0FE4040F476
:100F8000400070474FF0FF0C1CEAD0521EBF1CEA15
:100F9000D15392EA0C0F93EA0C0F69D0A2EB030233
:100FA00080EA010C49024FEA402037D04FF08053CD
:100FB00043EA111143EA10130CF000408B4238BF92
:100FC0005B0042F17D024FF4000C8B4224BF5B1AA0
:100FD00040EA0C00B3EB510F24BFA3EB510340EAEE
:100FE0005C00B3EB910F24BFA3EB910340EA9C009C
:100FF000B3EBD10F24BFA3EBD10340EADC001B010C
:1010000018BF5FEA1C1CE0D1FD2A3FF650AF8B42AF
:1010100040EBC25008BF20F0010070470CF0004CBC
:101020004CEA50207F32C2BFD2F1FF0340EAC250E7
:10103000704740F400004FF00003013A37E792F0A8
:10104000000F00F0004C02BF400010F4000F013A06
:10105000F9D040EA0C0093F0000F01F0004C02BF01
:10106000490011F4000F013BF9D041EA0C0195E76A
:101070000CEAD15392EA0C0F08D142027FF47DAF03
:1010800093EA0C0F7FF470AF084676E793EA0C0FF3
:1010900004D14B023FF44CAF08466EE730F0004CF1
:1010A00018BF31F0004CCAD130F000427FF45CAF81
:1010B00031F000437FF43CAF5FE700BF4FF0FF3CEF
:1010C00006E000BF4FF0010C02E000BF4FF0010C42
:1010D0004DF804CD4FEA40024FEA41037FEA226C0B
:1010E00018BF7FEA236C11D001B052EA530C18BF2D
:1010F00090EA010F58BFB2EB030088BFC81738BF92
:101100006FEAE17018BF40F0010070477FEA226C7F
:1011100002D15FEA402C05D17FEA236CE4D15FEA7B
:10112000412CE1D05DF8040B704700BF84460846AF
:101130006146FFE70FB5FFF7C9FF002848BF10F170
:10114000000F0FBD4DF808EDFFF7F4FF0CBF0120B5
:1011500000205DF808FB00BF4DF808EDFFF7EAFF3F
:1011600034BF012000205DF808FB00BF4DF808EDFA
:10117000FFF7E0FF94BF012000205DF808FB00BFEF
:101180004DF808EDFFF7D2FF94BF012000205DF875
:1011900008FB00BF4DF808EDFFF7C8FF34BF012082
:1011A00000205DF808FB00BF42000ED2B2F1FE4FF6
:1011B0000BD34FF09E03B3EB126209D44FEA002326
:1011C00043F0004323FA02F070474FF000007047ED
:1011D00012F1610F01D1420202D14FF0FF3070478E
:1011E0004FF00000704700BF53B94AB9002908BF4B
:1011F00000281CBF4FF0FF314FF0FF3000F06EB9F8
:10120000ADF1080C6DE904CE00F006F8DDF804E05D
:10121000DDE9022304B070472DE9F047089E0D4632
:1012200004468E46002B40F083808A42174647D9F9
:10123000B2FA82F34BB1C3F1200105FA03FE20FAA2
:1012400001F19F4041EA0E0E9C404FEA1748BEFB59
:10125000F8FC1FFA87F908FB1CE20CFB09F0210CD3
:1012600041EA024290420AD9BA180CF1FF3180F0EB
:101270001881904240F21581ACF1020C3A44121AE6
:10128000B2FBF8F008FB102200FB09F1A4B244EA1B
:101290000244A14209D93C1900F1FF3280F00381D8
:1012A000A14240F2008102383C44641A002140EA25
:1012B0000C401EB10022DC40C6E90042BDE8F087C8
:1012C00002B9FFDEB2FA82F3002B4FD18D1A012151
:1012D0004FEA124E1FFA82F8B5FBFEFC0EFB1C55BE
:1012E00008FB0CF0220C42EA0545A84207D97D19FB
:1012F0000CF1FF3202D2A84200F2E98094462D1A86
:10130000B5FBFEF00EFB105508FB00F8A4B244EA52
:101310000544A04507D93C1900F1FF3202D2A0458F
:1013200000F2D9801046A4EB080440EA0C40C0E764
:101330008B4208D9002E00F0B1800021C6E90005DB
:101340000846BDE8F087B3FA83F100294BD1AB42E0
:1013500002D3824200F2B980841A65EB03030120B4
:101360009E46002EAAD0C6E9004EA7E79F40C3F1D3
:101370002002D1404FEA174EB1FBFEF01FFA87F86A
:101380000EFB101124FA02F29D4000FB08FC2A43D8
:10139000150C45EA0145AC4504FA03F409D97D1959
:1013A00000F1FF3180F08F80AC4540F28C80023834
:1013B0003D44A5EB0C05B5FBFEF10EFB115C01FBFA
:1013C00008F995B245EA0C45A94507D97D1901F1FF
:1013D000FF3274D2A94572D902393D44A5EB090503
:1013E00041EA004178E7C1F120078B4022FA07FC6F
:1013F0004CEA030C25FA07F44FEA1C4EB4FBFEF945
:101400001FFA8CF80EFB194420FA07F309FB08FABF
:101410008D401D432B0C43EA0444A24502FA01F21D
:1014200000FA01F309D91CEB040409F1FF3048D29A
:10143000A24546D9A9F102096444A4EB0A04B4FB0D
:10144000FEF00EFB104400FB08FAADB245EA04447E
:10145000A24508D91CEB040400F1FF352DD2A245AA
:101460002BD90238644440EA0940A0FB0289A4EB6E
:101470000A044C45C6464D4619D316D05EB1B3EBAF
:101480000E0264EB050404FA07F722FA01F31F4386
:10149000CC40C6E900740021BDE8F08731463046F3
:1014A0000CE78C46EBE61046FFE64345E6D2B8EB88
:1014B000020E69EB0C050138E0E72846D3E7114638
:1014C0008CE78146B9E7084673E7084649E7ACF17F
:1014D000020C3D4413E702383C4424E7704700BF48
:1014E000844641EA000313F0030349D1403A23D371
:1014F0000B6803604B6843608B688360CB68C36094
:101500000B6903614B6943618B698361CB69C3617B
:101510000B6A03624B6A43628B6A8362CB6AC36263
:101520000B6B03634B6B43638B6B8363CB6BC3634B
:1015300040304031403ADBD230320BD30B6803608D
:101540004B6843608B688360CB68C3601030103198
:10155000103AF3D20C3205D351F8043B40F8043B67
:10156000043AF9D2043208D0D2071CBF11F8013B6B
:1015700000F8013B01D30B8803806046704700BF31
:10158000082A13D38B07B1D010F00303AED0C3F1F8
:101590000403D21ADB071CBF11F8013B00F8013B22
:1015A000A4D331F8023B20F8023B9FE7043AD9D399
:1015B000013A11F8013B00F8013BF9D20B780370B6
:1015C0004B7843708B788370604670470000000052
:1015D000704700BF00000000000000000000000095
:1015E000704700BF00000000000000000000000085
:1015F000FEE700BF00000000000000000000000047
:1016000084B0164B0393039B1B680293039B5B6898
:10161000019309E0029B1A68019B1A60019B043345
:101620000193029B04330293039B9B68019A9A42A5
:10163000F0D305E0019B00221A60019B0433019363
:10164000039BDB68019A9A42F4D3039B1033039304
:10165000039B034A9342D6D304B0704798A5000871
:1016600018A60008000000000000000000000000B4
:10167000704700BF000000000000000000000000F4
:1016800008B5FFF7F5FF03F083FA094803F0B8FC4B
:1016900001F076F801F0ECF901F0AAFB02F018FB7A
:1016A00001F046FE05F014FE00F00AF808BD00BF88
:1016B0006CA900080000000000000000000000000D
:1016C00008B504F0A5FC08BD000000000000000003
:1016D00000B583B030230193019B83F3118805F09B
:1016E0007FFE03B05DF804FB000000000000000076
:1016F00000B583B005F09CFE00230193019B83F3AA
:10170000118803B05DF804FB000000000000000039
:1017100008B5FFF7DDFF08BD000000000000000075
:1017200008B5FFF7E5FF08BD00000000000000005D
:1017300000B583B00190019806F082FF03B05DF818
:1017400004FB00BF000000000000000000000000DB
:1017500000B583B0019000910099019806F088FFD0
:101760000346184603B05DF804FB00BF000000000C
:1017700000B583B0019000910099019806F098FFA0
:1017800003B05DF804FB00BF000000000000000093
:1017900000B583B0019000910099019806F0A0FF78
:1017A00003B05DF804FB00BF000000000000000073
:1017B00000B585B00390019200930B468DF80B3075
:1017C000039B002B0CBF01230023DBB2002B07D1AE
:1017D000019B002B0CBF01230023DBB2002B01D0A7
:1017E000012300E00023002B07D1009B012B94BFB5
:1017F00001230023DBB2002B02D01B4805F0D8FDEB
:10180000039B1846FFF794FF039B9DF80B201A7269
:10181000039B0022DA60039B019A5A61039B019AA1
:101820001A61009B0433069A02FB03F3019A1A44DF
:10183000039B9A61009B1A1D039BDA61039B069A26
:101840001A62039B019A5A62039B00229A62039BCD
:101850000022DA62039B079A1A63039B089A5A6371
:1018600005B05DF804FB00BF18A6000800000000EA
:1018700000B583B0019005F0BBFE019B0022DA6049
:10188000019B5A6A019B5A61019B5A6A019B1A612A
:10189000019B00229A62019B0022DA62019B6FF099
:1018A00001011846FFF774FF03B05DF804FB00BFA9
:1018B00000B583B0019005F09BFE019B1A69019B66
:1018C0005B699A4205D1019BDB68002B01D00123A3
:1018D00000E0002303F00103DBB2002B01D0002362
:1018E00002E0019B1B690433184603B05DF804FB5A
:1018F00000B583B00190009105F07AFE009B002BAB
:101900000CBF01230023DBB2002B0AD1019BDB6952
:10191000043B009A9A428CBF01230023DBB2002BC8
:1019200002D0124805F044FD019B1B69009A1A6021
:10193000019BDB685A1C019BDA60019B1A69019BC1
:10194000DB691A44019B1A61019B1A69019B9B691F
:101950009A4203D3019B5A6A019B1A61019B0021A1
:101960001846FFF705FF03B05DF804FB28A6000842
:1019700000B585B00190009105F05AFE11E0019B81
:101980001B7A002B02D06FF001031CE0019B009931
:101990001846FFF7DDFE0390039B002B01DA039B43
:1019A00011E0019BDB68002BE9D0019B5B691A1DEC
:1019B000019B9A62019B9A6A019B5B691B681A44AE
:1019C000019BDA620023184605B05DF804FB00BFF6
:1019D00000B583B0019005F02BFE019BDB685A1E19
:1019E000019BDA60019B5A69019BDB691A44019BE8
:1019F0005A61019B5A69019B9B699A4203D3019BDF
:101A00005A6A019B5A61019B00229A62019B1B6BDF
:101A1000002B03D0019B1B6B0198984703B05DF826
:101A200004FB00BF000000000000000000000000F8
:101A300000B585B001900091FFF76AFE019B9B6A9B
:101A4000002B0BD100990198FFF792FF0390039BA5
:101A5000002B03D0FFF764FE039B14E0019B9B6AFD
:101A60001B780393019B9B6A5A1C019B9A62019B02
:101A70009A6A019BDB6A9A4202D30198FFF7A8FF9A
:101A8000FFF74EFE039B184605B05DF804FB00BF50
:101A900000B589B00390029101920093002307934F
:101AA000019B002B0CBF01230023DBB2002B02D0D3
:101AB000344805F07DFCFFF72BFE039B9B6A002B4F
:101AC0000BD100990398FFF753FF0590059B002B5E
:101AD00003D0FFF725FE079B50E0039BDB6A1A4605
:101AE000039B9B6AD31A0693019A079BD31A069A03
:101AF0009A4203D9019A079BD31A0693069B402B5F
:101B000013D9039B9B6A402219460298FFF7E8FC11
:101B1000029B40330293039B9B6A03F14002039BA9
:101B20009A62079B4033079314E0039B9B6A069AD3
:101B300019460298FFF7D4FC029A069B13440293BD
:101B4000039B9A6A069B1A44039B9A62079A069B18
:101B500013440793039B9A6A039BDB6A9A4202D35E
:101B60000398FFF735FFFFF7DBFD079A019B9A42C9
:101B700001D3079B02E0FFF7CBFD9EE7184609B0B3
:101B80005DF804FB3CA60008000000000000000017
:101B900000B585B00390019200930B468DF80B3091
:101BA000039B002B0CBF01230023DBB2002B07D1CA
:101BB000019B002B0CBF01230023DBB2002B01D0C3
:101BC000012300E00023002B07D1009B012B94BFD1
:101BD00001230023DBB2002B02D01B4805F0E8FBF9
:101BE000039B1846FFF7A4FD039B9DF80B201A7278
:101BF000039B069ADA60039B019A5A61039B019A40
:101C00001A61009B0433069A02FB03F3019A1A44FB
:101C1000039B9A61009B1A1D039BDA61039B069A42
:101C20001A62039B019A5A62039B00229A62039BE9
:101C30000022DA62039B079A1A63039B089A5A638D
:101C400005B05DF804FB00BF4CA6000800000000D2
:101C500000B583B0019005F0CBFC019B1A6A019B93
:101C6000DA60019B5A6A019B5A61019B5A6A019B87
:101C70001A61019B00229A62019B0022DA62019B99
:101C80006FF001011846FFF783FD03B05DF804FB18
:101C900000B583B00190009105F0AAFC019B1A6980
:101CA000019B5B699A4205D1019BDB68002B01D047
:101CB000012300E0002303F00103DBB2002B04D07A
:101CC000009B00221A60002307E0019B5B691A68F1
:101CD000009B1A60019B5B690433184603B05DF8F2
:101CE00004FB00BF00000000000000000000000036
:101CF00000B583B0019005F07BFC019BDB685A1CAA
:101D0000019BDA60019B5A69019BDB691A44019BC4
:101D10005A61019B5A69019B9B699A4203D3019BBB
:101D20005A6A019B5A61019B00211846FFF720FD6A
:101D300003B05DF804FB00BF0000000000000000DD
:101D400000B585B00190009105F072FC11E0019B97
:101D50001B7A002B02D06FF001031BE0019B00995E
:101D60001846FFF7F5FC0390039B002B01DA039B59
:101D700010E0019BDB68002BE9D0019B1B691A1D59
:101D8000019B9A62019B1A69019BDB691A44019BC2
:101D9000DA620023184605B05DF804FB000000007D
:101DA00000B583B00190009105F042FC009B002B30
:101DB0000CBF01230023DBB2002B0AD1019BDB699E
:101DC000043B009A9A428CBF01230023DBB2002B14
:101DD00002D0154805F0ECFA019B1B69009A1A60C5
:101DE000019BDB685A1E019BDA60019B1A69019B0B
:101DF000DB691A44019B1A61019B1A69019B9B696B
:101E00009A4203D3019B5A6A019B1A61019B0022EB
:101E10009A62019B1B6B002B03D0019B1B6B0198EB
:101E2000984703B05DF804FB5CA6000800000000C2
:101E300000B587B003900B4601928DF80B30FFF789
:101E400067FC039B9B6A002B0BD101990398FFF75A
:101E500077FF0590059B002B03D0FFF761FC059BE6
:101E600019E0039B9B6A9DF80B201A70039B9B6AE9
:101E70005A1C039B9A62039B9A6A039BDB6A9A42F1
:101E800006D3039BDB69043B19460398FFF788FFE1
:101E9000FFF746FC0023184607B05DF804FB00BFBF
:101EA00000B589B00390029101920093002307933B
:101EB000019B002B0CBF01230023DBB2002B02D0BF
:101EC000364805F075FAFFF723FC039B9B6A002B4D
:101ED0000BD100990398FFF733FF0590059B002B6A
:101EE00003D0FFF71DFC079B54E0039BDB6A1A46F7
:101EF000039B9B6AD31A0693019A079BD31A069AEF
:101F00009A4203D9019A079BD31A0693069B402B4A
:101F100013D9039B9B6A402202991846FFF7E0FA07
:101F2000029B40330293039B9B6A03F14002039B95
:101F30009A62079B4033079314E0039B9B6A069ABF
:101F400002991846FFF7CCFA029A069B13440293B3
:101F5000039B9A6A069B1A44039B9A62079A069B04
:101F600013440793039B9A6A039BDB6A9A4206D346
:101F7000039BDB69043B19460398FFF711FFFFF74A
:101F8000CFFB079A019B9A4201D3079B02E0FFF720
:101F9000BFFB9AE7184609B05DF804FB70A600087D
:101FA00000B585B0019005F023FB019B1A69019BE8
:101FB0005B699A4205D1019BDB68002B01D00123AC
:101FC00000E0002303F00103DBB2002B2DD0019BC6
:101FD0009B6A002B29D0019B9B6A1A46019B1B69B7
:101FE000D31A043B0393039B002B1ED0019B1B6958
:101FF000039A1A60019BDB685A1E019BDA60019B01
:102000001A69019BDB691A44019B1A61019B1A69D9
:10201000019B9B699A4203D3019B5A6A019B1A61F7
:10202000019B00229A62012300E00023184605B0BC
:102030005DF804FB0000000000000000000000004C
:1020400000B583B030230193019B83F3118805F021
:10205000C7F903B05DF804FB0000000000000000B9
:1020600000B583B005F0E4F900230193019B83F3ED
:10207000118803B05DF804FB0000000000000000C0
:1020800008B5FFF7DDFF08BD0000000000000000FC
:1020900008B5FFF7E5FF08BD0000000000000000E4
:1020A00000B583B00190019806F0CAFA03B05DF85C
:1020B00004FB00BF00000000000000000000000062
:1020C00000B583B0019000910099019806F0D0FA14
:1020D0000346184603B05DF804FB00BF0000000093
:1020E00000B583B0019000910099019806F0E0FAE4
:1020F00003B05DF804FB00BF00000000000000001A
:1021000000B587B0039002910192019B002B0CBF98
:1021100001230023DBB2002B02D02D4805F048F943
:10212000039B9B68019A9A4202D9039B9B68019387
:10213000039B1A69039B9B69D31A0593019A059B1C
:102140009A420DD2039B9B69019A19460298FFF7A8
:10215000C7F9039B9A69019B1A44039B9A612BE080
:10216000019A059B9A421CD9039B9B69059A1946C3
:102170000298FFF7B5F9029A059B13440293019A5E
:10218000059BD31A0493039BDB68049A19460298B3
:10219000FFF7A6F9039BDA68049B1A44039B9A6134
:1021A0000AE0039B9B69019A19460298FFF798F988
:1021B000039BDA68039B9A61039B9A68019BD21A7E
:1021C000039B9A60019B184607B05DF804FB00BFB3
:1021D00080A60008000000000000000000000000D1
:1021E00000B587B0039002910192019B002B0CBFB8
:1021F00001230023DBB2002B02D02D4805F0D8F8D4
:10220000039B9B68019A9A4202D9039B9B680193A6
:10221000039B1A69039B5B69D31A0593019A059B7B
:102220009A420DD2039B5B69019A02991846FFF707
:1022300057F9039B5A69019B1A44039B5A612BE08F
:10224000019A059B9A421CD9039B5B69059A0299E6
:102250001846FFF745F9029A059B13440293019A29
:10226000059BD31A0493039BDB68049A02991846D2
:10227000FFF736F9039BDA68049B1A44039B5A6103
:102280000AE0039B5B69019A02991846FFF728F957
:10229000039BDA68039B5A61039B9A68019BD21ADD
:1022A000039B9A60019B184607B05DF804FB00BFD2
:1022B00088A60008000000000000000000000000E8
:1022C00000B585B00390029101920093039B1846DC
:1022D000FFF7E6FE039B00229A60039B029ADA60F6
:1022E000039B029A9A61039B029A5A61029A019B8C
:1022F0001A44039B1A61039B009ADA61039B069AB6
:102300001A6205B05DF804FB000000000000000048
:1023100000B583B001900B468DF8033005F068F9E5
:10232000019B5A69019B9B699A4205D1019B9B685D
:10233000002B01D0012300E0002303F00103DBB2F6
:1023400083F00103DBB2002B1DD0019B9B685A1C5C
:10235000019B9A60019B5B69591C019A51619DF830
:1023600003201A70019B5A69019B1B699A4203D38F
:10237000019BDA68019B5A61019B00211846FFF717
:10238000AFFE002301E04FF0FF33184603B05DF8C5
:1023900004FB00BF0000000000000000000000007F
:1023A00000B585B001900091FFF76AFE0CE0019B3B
:1023B00000991846FFF784FE0290029B002B03DA77
:1023C000FFF766FE029B26E0019B9B68002BEED088
:1023D000019B9B685A1E019B9A60019B9B69591C3B
:1023E000019A91611B788DF80F30019B9A69019BCE
:1023F0001B699A4203D3019BDA68019B9A61019B96
:10240000DB69002B03D0019BDB6901989847FFF73C
:102410003FFE9DF80F30184605B05DF804FB00BF85
:1024200000B589B00390029101920093039BDB6990
:102430000793019B0693019B002B0CBF01230023F4
:10244000DBB2002B02D01B4804F0B2FFFFF718FEEE
:1024500024E0019A02990398FFF752FE0590059B2C
:10246000002B09D1039B00991846FFF729FE049021
:10247000049B002B15D111E0079B002B02D0079B7A
:1024800003989847FFF704FE019A059BD31A01931E
:10249000029A059B13440293FFF7F2FD019B002B68
:1024A000D7D1FFF7F5FD069A019BD31A184609B05C
:1024B0005DF804FB94A60008000000000000000086
:1024C00000B585B00390029101920093039B1846DA
:1024D000FFF7E6FD039B019A9A60039B029ADA607C
:1024E000039B029A9A61039B029A5A61029A019B8A
:1024F0001A44039B1A61039B009ADA61039B069AB4
:102500001A6205B05DF804FB000000000000000046
:1025100000B587B003900B4601928DF80B30FFF7A2
:10252000AFFD0CE0039B01991846FFF7C9FD05902C
:10253000059B002B03DAFFF7ABFD059B25E0039B12
:102540009B68002BEED0039B9B685A1E039B9A60EE
:10255000039B5B69591C039A51619DF80B201A700B
:10256000039B5A69039B1B699A4203D3039BDA6856
:10257000039B5A61039BDB69002B03D0039BDB6940
:1025800003989847FFF784FD0023184607B05DF8CD
:1025900004FB00BF0000000000000000000000007D
:1025A00000B585B0019005F023F8019B5A69019BA5
:1025B0009B699A4205D1019B9B68002B01D00123A6
:1025C00000E0002303F00103DBB283F00103DBB280
:1025D000002B1ED0019B9B685A1C019B9A60019B9B
:1025E0009B69591C019A91611B788DF80F30019BF2
:1025F0009A69019B1B699A4203D3019BDA68019B8C
:102600009A61019B00211846FFF76AFD9DF80F3083
:1026100001E04FF0FF33184605B05DF804FB00BF42
:1026200000B589B00390029101920093039BDB698E
:102630000793019B0693019B002B0CBF01230023F2
:10264000DBB2002B02D01B4804F0B2FEFFF718FDEE
:1026500024E0019A02990398FFF7C2FD0590059BBB
:10266000002B09D1039B00991846FFF729FD049020
:10267000049B002B15D111E0079B002B02D0079B78
:1026800003989847FFF704FD019A059BD31A01931D
:10269000029A059B13440293FFF7F2FC019B002B67
:1026A000D7D1FFF7F5FC069A019BD31A184609B05B
:1026B0005DF804FBA4A60008000000000000000074
:1026C00000B583B030230193019B83F3118804F09C
:1026D00087FE03B05DF804FB00000000000000006E
:1026E00000B583B004F0A4FE00230193019B83F3A3
:1026F000118803B05DF804FB00000000000000003A
:1027000008B5FFF7DDFF08BD000000000000000075
:1027100008B5FFF7E5FF08BD00000000000000005D
:1027200000B583B00190019806F012F903B05DF88E
:1027300004FB00BF000000000000000000000000DB
:1027400000B583B00190019806F022F903B05DF85E
:1027500004FB00BF000000000000000000000000BB
:1027600000B583B00190019806F09AF903B05DF8C6
:1027700004FB00BF0000000000000000000000009B
:1027800008B503F0C5F908BD000000000000000016
:1027900000B583B00190019B01221A70019B0022B9
:1027A0005A60019B0C331846FFF7BAFF03B05DF87F
:1027B00004FB00BF0000000000000000000000005B
:1027C00000B585B001900091019B002B0CBF012347
:1027D0000023DBB2002B07D1009B002B0CBF012391
:1027E0000023DBB2002B02D00E4804F0E1FDFFF71E
:1027F00087FF019B009A5A60019803F0B1F900230A
:102800000393039B002B03D1019B02221A7002E069
:10281000019B01221A70FFF77BFF039B184605B04E
:102820005DF804FBB4A600080000000000000000F2
:1028300000B583B00190019B002B0CBF0123002346
:10284000DBB2002B02D0094804F0B2FDFFF758FFBD
:10285000019803F04DFA019B00225A60019B01226E
:102860001A70FFF755FF03B05DF804FBC0A600081F
:1028700000B583B00190019B002B0CBF0123002306
:10288000DBB2002B02D0044804F092FD019B9B6850
:10289000184603B05DF804FBC8A60008000000005D
:1028A00000B58BB00790059204930B46ADF81A3033
:1028B000079B002B0CBF01230023DBB2002B07D1A9
:1028C000049B002B0CBF01230023DBB2002B01D0A3
:1028D000012300E00023002B07D1059B002B0CBF38
:1028E00001230023DBB2002B01D0012300E00023F1
:1028F000002B21D10D9B002B14BF01230023DBB241
:10290000002B16D00D9B002B0CBF01230023DBB244
:10291000002B07D10C9B002B0CBF01230023DBB243
:10292000002B01D0012300E00023002B01D0012364
:1029300000E00023002B01D0012300E00023002B46
:1029400007D10E9B002B0CBF01230023DBB2002B11
:1029500002D0154804F02CFDFFF7D2FE079B0022A1
:102960009A60079B03221A70BDF81A100E9B0293FF
:102970000D9B01930C9B0093049B059A079803F011
:10298000FFF90990099BB3F1FF3F03D1079B052293
:102990001A7002E0079B02221A70FFF7B9FE099B2A
:1029A00018460BB05DF804FBD8A600080000000034
:1029B00000B583B00190019B002B0CBF01230023C5
:1029C000DBB2002B02D0054804F0F2FC019B0C3373
:1029D0001846FFF7B5FE03B05DF804FBF4A6000847
:1029E00000B583B00190019B002B0CBF0123002395
:1029F000DBB2002B02D0054804F0DAFC019B0C335B
:102A00001846FFF7ADFE03B05DF804FB04A700080D
:102A100000B583B030230193019B83F3118804F048
:102A2000DFFC03B05DF804FB0000000000000000C4
:102A300000B583B004F0FCFC00230193019B83F3F9
:102A4000118803B05DF804FB0000000000000000E6
:102A500008B5FFF7DDFF08BD000000000000000022
:102A600008B5FFF7E5FF08BD00000000000000000A
:102A700008B503F01DFB08BD0000000000000000C9
:102A800082B00190019B01221A70019B00225A60C2
:102A9000019B0022DA60019B00221A7402B0704789
:102AA00000B585B001900091019B002B0CBF012364
:102AB0000023DBB2002B07D1009B002B0CBF0123AE
:102AC0000023DBB2002B02D0124804F071FCFFF7A8
:102AD000BFFF019B009A5A60009B5A68019B9A6055
:102AE000019B0022DA60019803F01AFB0023039394
:102AF000039B002B03D1019B02221A7002E0019B71
:102B000001221A70FFF7ACFF039B184605B05DF871
:102B100004FB00BF14A70008000000000000000034
:102B200000B585B003900B4601928DF80B30039BE6
:102B3000002B0CBF01230023DBB2002B0AD1039B27
:102B40001B7C9DF80B209A422CBF01230023DBB293
:102B5000002B02D00D4804F02BFCFFF779FF039BFC
:102B6000DA689DF80B30012101FA03F31A43039B45
:102B7000DA609DF80B30019A1946039803F038FC8F
:102B8000FFF76EFF05B05DF804FB00BF20A700084B
:102B900000B583B030230193019B83F3118804F0C7
:102BA0001FFC03B05DF804FB000000000000000003
:102BB00000B583B004F03CFC00230193019B83F338
:102BC000118803B05DF804FB000000000000000065
:102BD00008B5FFF7DDFF08BD0000000000000000A1
:102BE00008B5FFF7E5FF08BD000000000000000089
:102BF00000B583B00190019805F0B2FF03B05DF815
:102C000004FB00BF00000000000000000000000006
:102C100000B583B0019000910099019805F0F8FF8C
:102C200003B05DF804FB00BF0000000000000000DE
:102C300000B585B0039002910192039B03F130002F
:102C40004FF0FF33019A0299FFF7EAFC034618465A
:102C500005B05DF804FB00BF0000000000000000AC
:102C600000B585B0039002910192039B03F10C0023
:102C70004FF0FF33019A0299FFF7D2FB0346184643
:102C800005B05DF804FB00BF00000000000000007C
:102C900000B583B001900B468DF80330019B3033B3
:102CA0009DF803104FF0FF321846FFF731FC034642
:102CB000184603B05DF804FB0000000000000000AF
:102CC00000B583B00190019B0C334FF0FF311846E3
:102CD000FFF766FB0346184603B05DF804FB00BF30
:102CE00000B585B003900B4601928DF80B30039B25
:102CF00030339DF80B10019A1846FFF709FC034684
:102D0000184605B05DF804FB00000000000000005C
:102D100000B583B001900091019B0C3300991846D7
:102D2000FFF73EFB0346184603B05DF804FB00BF07
:102D300000B585B00390029101920093039B03F1CB
:102D40003000009B019A0299FFF76AFC034618467F
:102D500005B05DF804FB00BF0000000000000000AB
:102D600000B585B00390029101920093039B03F19B
:102D70000C00009B019A0299FFF752FB034618468C
:102D800005B05DF804FB00BF00000000000000007B
:102D900000B587B0039002910192039B0593059BB8
:102DA000002B0CBF01230023DBB2002B02D00F4805
:102DB00004F0FEFA029B002B0FD0029B012B0FD1D7
:102DC000019B002B14BF01230023DBB2002B02D098
:102DD000064804F0EDFA002304E06FF0130301E06D
:102DE0006FF01303184607B05DF804FB5CA70008FA
:102DF00008B503F065FC08BD0000000000000000FD
:102E000000B587B0059004910392059B124A1A60A1
:102E1000059B04331846FFF7EBFE059B01221A724F
:102E2000059B03F10C00059B03F15401059B0093E6
:102E3000049B1022FFF744FA059B03F13000059B29
:102E400003F16401059B0093039B1022FFF738FBFD
:102E500007B05DF804FB00BF34A7000800000000C5
:102E600000B585B001900091019B002B0CBF0123A0
:102E70000023DBB2002B02D00D4804F099FAFFF7D3
:102E8000A7FE0099019803F03BFC00230393039BEA
:102E9000002B03D1019B02221A7202E0019B012246
:102EA0001A72FFF79DFE039B184605B05DF804FB00
:102EB00064A70008000000000000000000000000FF
:102EC00000B583B001900B468DF8033004F090FB01
:102ED000019B002B0CBF01230023DBB2002B02D08F
:102EE000104804F065FA019B5B69002B05D1019B3A
:102EF000043304211846FFF78BFE019B0C339DF829
:102F0000032011461846FFF703FA0346002B06DAA2
:102F1000019B04334FF400611846FFF779FE03B0BC
:102F20005DF804FB6CA70008000000000000000032
:102F300000B583B030230193019B83F3118804F023
:102F40004FFA03B05DF804FB000000000000000031
:102F500000B583B004F06CFA00230193019B83F366
:102F6000118803B05DF804FB0000000000000000C1
:102F700000B583B030230193019B83F3118804F0E3
:102F80007FFA03B05DF804FB0000000000000000C1
:102F900000B583B004F09CFA00230193019B83F3F6
:102FA000118803B05DF804FB000000000000000081
:102FB00008B5FFF7BDFF08BD0000000000000000DD
:102FC00008B5FFF7C5FF08BD0000000000000000C5
:102FD00008B5FFF7CDFF08BD0000000000000000AD
:102FE00008B5FFF7D5FF08BD000000000000000095
:102FF00000B583B0019000910099019805F070FB35
:1030000003B05DF804FB00BF0000000000000000FA
:1030100000B583B00190019805F0A2FD03B05DF802
:1030200004FB00BF000000000000000000000000E2
:1030300000B583B0019000910099019805F0E8FD7A
:1030400003B05DF804FB00BF0000000000000000BA
:1030500000B585B00190019BD3F88C341B681B78B8
:10306000042B03D1019B1B7A022B01D001232BE0FF
:10307000019BD3F88C341B685A89019BD3F88C349C
:103080005B79194601238B409BB213409BB2002B06
:1030900001D0012318E0019B0C331846FEF708FC11
:1030A0000390039B002B01D101230DE0019BD3F87A
:1030B0008C341868019BD3F88C3459794FF48073A1
:1030C000039A00F0FDFE0023184605B05DF804FBEE
:1030D00000B585B0039002910192039B03F1440077
:1030E0004FF0FF33019A0299FEF7DAFE03461846C5
:1030F00005B05DF804FB00BF000000000000000008
:1031000000B585B0039002910192039B03F10C007E
:103110004FF0FF33019A0299FEF7BAFC03461846B6
:1031200005B05DF804FB00BF0000000000000000D7
:1031300000B583B001900B468DF80330019B4433FA
:103140009DF803104FF0FF321846FEF771FE03465C
:10315000184603B05DF804FB00000000000000000A
:1031600000B583B00190019B0C334FF0FF3118463E
:10317000FEF75EFC0346184603B05DF804FB00BF93
:1031800000B585B003900B4601928DF80B30039B80
:1031900044339DF80B10019A1846FEF749FE03468A
:1031A000184605B05DF804FB0000000000000000B8
:1031B00000B583B001900091019B0C330099184633
:1031C000FEF736FC0346184603B05DF804FB00BF6B
:1031D00000B585B00390029101920093039B03F127
:1031E0004400009B019A0299FEF75AFE03461846D6
:1031F00005B05DF804FB00BF000000000000000007
:1032000000B585B00390029101920093039B03F1F6
:103210000C00009B019A0299FEF73AFC03461846FF
:1032200005B05DF804FB00BF0000000000000000D6
:1032300000B587B0039002910192039B0593059B13
:10324000002B0CBF01230023DBB2002B02D00C4863
:1032500004F0AEF8029B002B0DD0029B012B0AD18B
:10326000019B002B14BF01230023DBB2002B02D0F3
:10327000034804F09DF80023184607B05DF804FBEE
:10328000A4A70008000000000000000000000000EB
:1032900000B585B00190019B5B6B03930398FFF72A
:1032A000D7FE05B05DF804FB000000000000000040
:1032B00000B587B00190019B5B6B0593059BD3F82C
:1032C0008C341B681B78042B29D1059B1B7A022B9D
:1032D00025D1059BD3F88C341B681A89059BD3F83C
:1032E0008C341B79194601238B409BB213409BB24F
:1032F000002B15D1059B443303AA11461846FEF74F
:10330000C7FC0490059BD3F88C341868059BD3F850
:103310008C341979039B049A00F01AFE00E000BF78
:1033200007B05DF804FB00BF0000000000000000D3
:10333000704700BF00000000000000000000000017
:1033400000B587B00590059B174A1A60059B0433AA
:103350001846FFF75DFE059B01221A72059B03F1DB
:103360000C00059B03F17C02059B02930F4B01931C
:10337000022300934FF480730121FEF719FA059B95
:1033800003F14400059B03F52172059B0293084B52
:103390000193022300934FF480730121FEF7F8FBA1
:1033A00007B05DF804FB00BF7CA70008913200085D
:1033B000B132000800000000000000000000000022
:1033C00000B585B001900091009B1B680393019BA1
:1033D000002B0CBF01230023DBB2002B02D01848C6
:1033E00003F0E6FFFFF7E4FD009B1B79013B039A26
:1033F0000A339B001344019A5A60009B5B795A1E62
:10340000039B1232019943F82210009B9B79002BF9
:1034100008D0009B9B79013B039A0A339B0013441D
:10342000019A5A60019B009AC3F88C24019B0222E6
:103430001A72FFF7C5FD0023184605B05DF804FBBE
:10344000ACA7000800000000000000000000000021
:1034500000B583B00190019B1B7D002B04D0019B24
:1034600093F84C30002B1BD1019B043302211846EA
:10347000FFF7DEFD019B01221A75019B0C336FF0F3
:1034800001011846FFF7B4FD019B012283F84C208F
:10349000019B44336FF001011846FFF7A9FD00E0DE
:1034A00000BF03B05DF804FB000000000000000056
:1034B00000B583B00190019B043301211846FFF74A
:1034C000B7FD019B00221A75019B002283F84C2056
:1034D00003B05DF804FB00BF000000000000000026
:1034E00000B583B00190019B0C331846FEF7C0F97C
:1034F000019B00221A75019B44331846FEF7A8FB76
:10350000019B002283F84C20019B043301211846C3
:10351000FFF78EFD0198FFF79BFD03B05DF804FBFC
:1035200082B00190019B93F8743003F06003202B6C
:103530002DD1019B93F87530222B1BD0222B24DC3C
:10354000202B0CD0212B20D1019B134A9A66019B82
:103550000722DA66019B00221A67012318E0019B0B
:103560000D4A9A66019B0722DA66019B00221A67C0
:1035700001230DE0019B00229A66019B0022DA667E
:10358000019B00221A67012302E0002300E00023D0
:10359000184602B0704700BF00080020000000007D
:1035A00000B585B00190019BD3F88C341B681B7863
:1035B000042B31D1019B1B7A022B2DD1019BD3F817
:1035C0008C341B681A89019BD3F88C341B791946FB
:1035D00001238B409BB213409BB2002B1ED1019B59
:1035E00044331846FEF7DCFC0346002B17D0019B42
:1035F000443302AA11461846FEF74AFB0390019B8A
:10360000D3F88C341868019BD3F88C341979029B59
:10361000039A00F09DFC02E000BF00E000BF05B08F
:103620005DF804FB00000000000000000000000046
:1036300000B587B001900B468DF803309DF803303C
:10364000013B019A0A339B0013445B680593059B79
:10365000002B56D0FFF7BCFC059B0433082118460D
:10366000FFF7E6FC9DF80330019A02339B001344F8
:103670005B685B691B68002B04D0059B44331846CC
:10368000FEF736FB059B443303AA11461846FEF7A6
:10369000FFFA0490049B002B07D0039B9DF80310B6
:1036A000049A019800F054FC28E09DF80330019A38
:1036B00002339B0013445B685B691B68002B1DD0C1
:1036C0009DF80330019A02339B0013445B685B69E9
:1036D0001A689DF80330019902339B000B445B6824
:1036E0001B8A013B1340002B08D1019B03F174029C
:1036F0009DF803100023019800F02AFCFFF770FCEE
:1037000000E000BF07B05DF804FB00BF0000000050
:1037100000B585B001900B468DF803309DF803305D
:103720005A1E019B123253F822300393039B002B45
:1037300025D0FFF74DFC039BD3F88C341A68039B0C
:10374000D3F88C345B7902339B0013445B689B692C
:103750005B680293029B002B0BD0039B0433042174
:103760001846FFF765FC039B0C3302991846FEF7D9
:10377000BFF80398FFF76CFCFFF732FC00E000BFD6
:1037800005B05DF804FB00BF000000000000000071
:1037900082B001900B468DF8033002B0704700BF35
:1037A00000B583B030230193019B83F3118803F0AC
:1037B00017FE03B05DF804FB0000000000000000ED
:1037C00000B583B003F034FE00230193019B83F323
:1037D000118803B05DF804FB000000000000000049
:1037E00000B583B030230193019B83F3118803F06C
:1037F00047FE03B05DF804FB00000000000000007D
:1038000000B583B003F064FE00230193019B83F3B2
:10381000118803B05DF804FB000000000000000008
:1038200008B5FFF7BDFF08BD000000000000000064
:1038300008B5FFF7C5FF08BD00000000000000004C
:1038400008B5FFF7CDFF08BD000000000000000034
:1038500008B5FFF7D5FF08BD00000000000000001C
:1038600084B00190019B5A1C01921B78ADF80E3078
:10387000019B1B781B021AB2BDF90E3013431BB219
:10388000ADF80E30BDF80E30184604B0704700BFDA
:1038900000B583B00190019B93F87620019B83F8DB
:1038A0007E20019803F0A4FA019B5B681B68002B43
:1038B00005D0019B5B681B68012101989847019B1B
:1038C00003221A7003B05DF804FB00BF0000000083
:1038D00070B584B00190019B93F8743003F07F02BF
:1038E000019B93F875301B02134340F6024293424A
:1038F00000F0138140F60242934200F2D781B3F503
:10390000106F00F0C980B3F5106F00F2CF81B3F5EE
:10391000006F00F0B480B3F5006F00F2C78140F291
:103920000162934200F2C281B3F5C06F80F08180E2
:10393000B3F5A06F72D0B3F5A06F00F2B78140F27B
:103940000232934200F07E8140F20232934200F252
:10395000AD81B3F5407F46D0B3F5407F00F2A6813C
:10396000B3F5817F00F03A81B3F5817F00F29E814B
:10397000B3F5807F1CD0B3F5807F00F29781022BD6
:1039800000F0D680022B00F29181002B03D0012B96
:1039900000F0C3808AE1019B03F17C02019B9A66DF
:1039A000019B0222DA66019B00221A6701237EE155
:1039B000019B93F87630012B13D1019BB3F87C3037
:1039C00023F002039AB2019BA3F87C20019B002202
:1039D0009A66019B0022DA66019B00221A67012386
:1039E00065E1002363E1019B93F87630012B13D14D
:1039F000019BB3F87C3043F002039AB2019BA3F819
:103A00007C20019B00229A66019B0022DA66019BC2
:103A100000221A6701234AE1002348E1019B0022AA
:103A20009A66019B0022DA66019BA24A1A6701236B
:103A30003DE1019B5B685C68019B93F87750019BBB
:103A400093F87660019B78331846FFF709FF034629
:103A5000324629460198A0470390039B002B01D1D1
:103A6000002324E1039B5A68019B9A66039B1A6812
:103A7000019BDA66019B00221A67012317E1019B73
:103A800003F17F02019B9A66019B0122DA66019B8A
:103A900000221A6701230AE1019B1B78042B18D12D
:103AA000FFF7CEFE019800F0D3F9FFF7D1FE019B9E
:103AB000002283F87F20019B03221A70019B5B6820
:103AC0001B68002B05D0019B5B681B6803210198D4
:103AD0009847019B93F87630002B13D0019B93F805
:103AE0007620019B83F87F20019B04221A70019BA2
:103AF0005B681B68002B05D0019B5B681B6802217B
:103B000001989847019B00229A66019B0022DA6681
:103B1000019B00221A670123C9E0019B664A9A664D
:103B2000019B0222DA66019B00221A670123BEE094
:103B3000019B93F878305BB2002B27DA019B93F856
:103B4000783003F00F03DBB21946019803F040FA16
:103B50000346012B02D0022B0BD015E0019B574AE4
:103B60009A66019B0222DA66019B00221A670123F2
:103B70009DE0019B524A9A66019B0222DA66019BF4
:103B800000221A67012392E0002390E0019B93F842
:103B9000783003F00F03DBB21946019803F0F8F90F
:103BA0000346012B02D0022B0BD015E0019B434AA8
:103BB0009A66019B0222DA66019B00221A670123A2
:103BC00075E0019B3E4A9A66019B0222DA66019BE0
:103BD00000221A6701236AE0002368E0019B93F842
:103BE0007630002B01D0002361E0019B93F8783000
:103BF00003F00F03002B1AD0019B93F878305BB2CF
:103C0000002B0ADA019B93F8783003F00F03DBB244
:103C10001946019803F02CFB09E0019B93F87830DA
:103C200003F00F03DBB21946019803F0F9FA019B88
:103C300000229A66019B0022DA66019B00221A6725
:103C4000012334E0019B93F87630002B01D0002350
:103C50002DE0019B93F8783003F00F03002B1AD06E
:103C6000019B93F878305BB2002B0ADA019B93F842
:103C7000783003F00F03DBB21946019803F0B0FA75
:103C800009E0019B93F8783003F00F03DBB219468B
:103C9000019803F085FA019B00229A66019B00229D
:103CA000DA66019B00221A67012300E00023184610
:103CB00004B070BD91380008B8A70008C0A700087C
:103CC000BCA7000800000000000000000000000089
:103CD00008B503F015F808BD000000000000000062
:103CE00084B00190019B01221A70019B00225A604E
:103CF000002303930FE0019A039B0A339B001344B4
:103D000000225A60019B039A1232002143F82210CC
:103D1000039B01330393039B062BECD9019B0022E9
:103D20001A81019B00225A8104B0704700000000F4
:103D300000B585B001900091019B002B0CBF0123C1
:103D40000023DBB2002B07D1009B002B0CBF01230B
:103D50000023DBB2002B02D0164803F029FBFFF74B
:103D60005FFD019B009A5A600023039309E0019ACA
:103D7000039B02339B00134400225A60039B0133D0
:103D80000393039B072BF2D9019802F0C1FF002394
:103D90000293029B002B03D1019B02221A7002E0C6
:103DA000019B01221A70FFF743FD029B184605B0E4
:103DB0005DF804FBC4A7000800000000000000003C
:103DC00000B585B003900B4601928DF80B3003F0DF
:103DD0000FFC039B002B0CBF01230023DBB2002B45
:103DE00007D1019B002B0CBF01230023DBB2002B6A
:103DF00002D0154803F0DCFA9DF80B30039A023329
:103E00009B001344019A5A60019B5B69002B06D00A
:103E1000019B5B6910220021184606F06BFB019B99
:103E20009B69002B06D0019B9B691022002118463C
:103E300006F060FB9DF80B301946039802F0E8FF8E
:103E400005B05DF804FB00BFD0A70008000000002B
:103E500000B585B0019003F0CBFB019B002B0CBF9C
:103E600001230023DBB2002B02D0134803F0A0FA99
:103E7000019B1B8903F001039AB2019B1A81019BEC
:103E80005B8903F001039AB2019B5A8101230393DA
:103E900009E0019A039B02339B00134400225A60FD
:103EA000039B01330393039B072BF2D9019803F083
:103EB00047F805B05DF804FBE4A700080000000027
:103EC00000B587B00390019200930B468DF80B303C
:103ED00003F08EFB039B002B0CBF01230023DBB2FE
:103EE000002B08D19DF80B30072B8CBF012300233A
:103EF000DBB2002B02D0154803F05AFA039B5A8913
:103F00009DF80B30012101FA03F39BB213439AB2DF
:103F1000039B5A819DF80B30039A02339B00134494
:103F20005B689B690593059B019A9A60059B009AC3
:103F30001A60059B00225A609DF80B3019460398C1
:103F400003F096F807B05DF804FB00BFFCA700087B
:103F500000B587B00390019200930B468DF80B30AB
:103F600003F046FB039B002B0CBF01230023DBB2B5
:103F7000002B08D19DF80B30072B8CBF01230023A9
:103F8000DBB2002B02D0154803F012FA039B1A890A
:103F90009DF80B30012101FA03F39BB213439AB24F
:103FA000039B1A819DF80B30039A02339B00134444
:103FB0005B685B690593059B019A9A60059B009A73
:103FC0001A60059B00225A609DF80B301946039831
:103FD00003F096F807B05DF804FB00BF10A80008D6
:103FE00000B585B00190019B02221A70019B00224E
:103FF000A3F87C20019B002283F87E20019B0022F5
:1040000083F87F20019B00221A81019B00225A81A4
:104010000023039309E0019A039B02339B0013449E
:1040200000225A60039B01330393039B072BF2D9B1
:10403000019B002283F86420019802F0A9FE019BF5
:104040005B681B68002B05D0019B5B681B68002127
:104050000198984705B05DF804FB00BF0000000020
:1040600000B583B00190019B1B78052B18D0019BF4
:104070001A78019B83F88020019B05221A70019B0E
:104080005B681B68002B05D0019B5B681B680421E3
:1040900001989847019B00221A81019B00225A81B6
:1040A00003B05DF804FB00BF00000000000000004A
:1040B00000B583B00190019B1B78052B0FD1019BAC
:1040C00093F88020019B1A70019B5B681B68002B92
:1040D00005D0019B5B681B6805210198984703B0D8
:1040E0005DF804FB0000000000000000000000007C
:1040F00000B585B001900B468DF80330019B93F815
:104100006430002B03D0019B002283F86420019BC4
:1041100003F174029DF803301946019802F078FF0C
:10412000019B5B689B68002B0AD0019B5B689B68C6
:1041300001989847034683F00103DBB2002B27D098
:10414000019B93F8743003F06003002B08D10198B1
:10415000FFF7BEFB034683F00103DBB2002B17D051
:104160000021019803F03CF80021019803F018F8B1
:10417000019B5B681B68002B05D0019B5B681B687B
:10418000062101989847019B062283F864205BE092
:10419000019B7A331846FFF763FB03460393019BA9
:1041A000DB6E039A9A4202D2019B039ADA66019B64
:1041B00093F874305BB2002B23DA019BDB6E002B8B
:1041C00010D0019B092283F86420FFF739FB019B83
:1041D0009A6E019BDB6E00210198FFF7B9FEFFF795
:1041E00037FB31E0019B142283F86420FFF728FBA2
:1041F0000023002200210198FFF762FEFFF728FB51
:1042000022E0019BDB6E002B10D0019B152283F86E
:104210006420FFF715FB019B9A6E019BDB6E00216A
:104220000198FFF74DFEFFF713FB0DE0019B0B22FA
:1042300083F86420FFF704FB00230022002101988B
:10424000FFF786FEFFF704FB05B05DF804FB00BF37
:1042500000B585B001900B468DF80330019B93F8B3
:104260006430152B00F28A8001A252F823F000BFBF
:104270004F4300087D4300087D4300087D4300084C
:104280007D4300087D4300084F4300087D4300083C
:104290007D430008C9420008174300083543000861
:1042A0007D4300087D4300087D4300087D430008EE
:1042B0007D4300087D4300087D4300087D430008DE
:1042C0004F4300084F430008019B7A331846FFF71D
:1042D000C7FA03460393019BDB6E039A9A421AD9ED
:1042E000019BDB6E019AD268128AB3FBF2F102FBEA
:1042F00001F29B1A002B0ED1FFF7A2FA0023002235
:1043000000210198FFF724FEFFF7A2FA019B0A2281
:1043100083F8642032E0019B142283F86420FFF7C5
:104320008FFA0023002200210198FFF7C9FDFFF753
:104330008FFA23E0019B1B6F002B03D0019B1B6FA7
:1043400001989847019B002283F8642016E0002121
:10435000019802F045FF0021019802F021FF019B26
:104360005B681B68002B05D0019B5B681B680621FE
:1043700001989847019B062283F8642005B05DF8F8
:1043800004FB00BF0000000000000000000000006F
:1043900000B583B001900B468DF80330019B93F874
:1043A0006430152B67D801A252F823F04944000865
:1043B00077440008774400087744000877440008F1
:1043C000774400084944000877440008774400080F
:1043D000494400084944000849440008774400085B
:1043E00077440008774400087744000877440008C1
:1043F0007744000877440008774400082344000805
:1044000005440008019B0B2283F86420FFF718FA8B
:104410000023002200210198FFF79AFDFFF718FA08
:1044200029E0019BDB689B695B68002B23D1019B22
:104430001B6F002B03D0019B1B6F01989847019BBA
:10444000002283F8642016E00021019802F0C8FEE3
:104450000021019802F0A4FE019B5B681B68002B01
:1044600005D0019B5B681B68062101989847019B5A
:10447000062283F8642003B05DF804FB000000000E
:1044800088B00390029101920093029B0593009BD8
:10449000002B02D1029B049301E0009B0493039B39
:1044A0000B330693059B019AB3FBF2F2019901FBD2
:1044B00002F29B1A0793079B30330793079B392B14
:1044C00002DD079B07330793069B013B0693079B7F
:1044D000DAB2069B1A70059A019BB2FBF3F30593BF
:1044E000049A019BB2FBF3F30493049B002BD9D1F4
:1044F000039B03F10B02069BD31A0793069A531CE6
:104500000693039B591C039112781A70079B013B79
:104510000793079B002BF1D1039B184608B0704707
:1045200000B585B00390029101920023019A02998F
:104530000398FFF7A5FF0346184605B05DF804FB96
:1045400000B591B003900291019200230993029B60
:104550005A1C02921B788DF837309DF83730002BAB
:1045600001D1099B49E29DF83730252B0BD0039BE5
:104570001B68DB689DF83720114603989847099B14
:1045800001330993E3E704AB0F9304AB0E930023CD
:104590008DF82230029B1B782D2B05D1029B013315
:1045A000029301238DF8223000238DF82130029BE5
:1045B0001B782B2B05D1029B0133029301238DF82D
:1045C000213020238DF83630029B1B78302B05D10B
:1045D000029B0133029330238DF83630029B1B7807
:1045E0002A2B0ED1019B1A1D01921B680A93029B74
:1045F00001330293029B5A1C02921B788DF83730CC
:1046000025E000230A93029B5A1C02921B788DF826
:1046100037309DF83730002B01D1099BEDE19DF833
:1046200037302F2B13D99DF83730392B0FD89DF801
:104630003730303B8DF837300A9A13469B001344CD
:104640005B001A469DF8373013440A93DBE70023DA
:104650000B939DF837302E2B3ED1029B5A1C0292B1
:104660001B788DF837309DF83730002B01D1099B2E
:10467000C3E19DF837302A2B26D1019B1A1D0192E8
:104680001B680B93029B5A1C02921B788DF83730E3
:1046900022E09DF83730303B8DF837300B9A1346C7
:1046A0009B0013445B001A469DF8373013440B936C
:1046B000029B5A1C02921B788DF837309DF83730D8
:1046C000002B01D1099B98E19DF837302F2B03D99E
:1046D0009DF83730392BDCD99DF837306C2B03D05F
:1046E0009DF837304C2B0ED101238DF82330029BDF
:1046F0005A1C02921B788DF837309DF83730002B0A
:1047000014D1099B79E19DF83730402B05D99DF8EC
:1047100037305A2B01D8012300E000238DF82330D5
:104720009DF8233003F001038DF823309DF83730D6
:10473000443B342B00F2ED8001A252F823F000BF7D
:104740007748000813490008134900081349000876
:104750001349000877480008134900081349000866
:10476000134900081349000813490008DD480008F0
:10477000CD480008134900081349000813490008F0
:1047800013490008D54800081349000813490008D8
:10479000CD480008134900081349000813490008D0
:1047A0001349000813490008134900081349000879
:1047B0001349000813490008134900081548000868
:1047C00077480008134900081349000813490008F6
:1047D00013490008774800081349000813490008E6
:1047E000134900081349000813490008DD48000870
:1047F000CD48000813490008134900082F48000855
:1048000013490008D5480008134900081349000857
:10481000CD48000820238DF83630019B1A1D0192E7
:1048200019680F9B5A1C0F92CAB21A7077E02023A6
:104830008DF83630019B1A1D01921B680E930E9B5A
:10484000002B01D16F4B0E930B9B002B02D147F62F
:10485000FF730B930E9B0F9302E00F9B01330F939B
:104860000F9B1B78002B5AD00B9B013B0B930B9B90
:10487000002BF2DA53E09DF82330002B05D0019B8A
:104880001A1D01921B68079304E0019B1A1D0192F7
:104890001B680793079B002B08DA0F9B5A1C0F928B
:1048A0002D221A70079B5B42079308E09DF8213088
:1048B000002B04D00F9B5A1C0F922B221A700A2235
:1048C00007990F98FFF72CFE0F9028E010238DF822
:1048D000373006E00A238DF8373002E008238DF8E0
:1048E00037309DF82330002B05D0019B1A1D019213
:1048F0001B68079304E0019B1A1D01921B68079334
:104900009DF837301A4607990F98FFF709FE0F9068
:1049100005E00F9B5A1C0F929DF837201A700F9AD2
:104920000E9BD31A0C930A9A0C9BD31A0A930A9BD8
:10493000002B01DA00230A939DF8223083F0010353
:10494000DBB2002B02D00A9B5B420A930A9B002B2E
:104950003ADA0E9B1B782D2B03D00E9B1B782B2B4A
:1049600013D19DF83630302B0FD1039B1B68DA68CA
:104970000E9B591C0E911B78194603989047099B72
:10498000013309930C9B013B0C93039B1B68DB6871
:104990009DF83620114603989847099B01330993E7
:1049A0000A9B01330A930A9B002BEED10CE0039B78
:1049B0001B68DA680E9B591C0E911B7819460398E8
:1049C0009047099B013309930C9B013B0C930C9B73
:1049D000002BECDA0DE0039B1B68DB689DF83620AA
:1049E000114603989847099B013309930A9B013BA1
:1049F0000A930A9B002BEED1A9E5184611B05DF889
:104A000004FB00BF24A80008000000000000000014
:104A10000EB400B584B0019006AB0293029A0599DA
:104A20000198FFF78DFD0390039B184604B05DF8D5
:104A300004EB03B0704700BF00000000000000005E
:104A400082B001900091009BDBB2114A1B01D9B2E8
:104A5000019B134403F540730A461A70019B03F04F
:104A60001F020B49019B5B09012000FA02F260332F
:104A700041F82320019B03F01F020549019B5B09BC
:104A8000012000FA02F241F8232002B0704700BF73
:104A900000E100E000000000000000000000000055
:104AA00082B00190019B03F01F020F49019B5B093B
:104AB000012000FA02F2203341F82320019B03F089
:104AC0001F020949019B5B09012000FA02F26033D1
:104AD00041F82320044A019B134403F5407300224C
:104AE0001A7002B0704700BF00E100E00000000053
:104AF00000B583B001900091019B0B2B8CBF01236B
:104B00000023DBB2002B02D0074802F051FC009BCF
:104B1000DBB2064A1B01D9B2019B134418330A4683
:104B20001A7003B05DF804FB2CA8000800ED00E04B
:104B300008B506210620FFF783FF06210720FFF7AF
:104B40007FFF06210820FFF77BFF06210920FFF7E2
:104B500077FF06210A20FFF773FF06211720FFF7D2
:104B60006FFF06212820FFF76BFF08BD0000000043
:104B7000034B1B68024A43F480731360704700BF05
:104B80000070004000000000000000000000000075
:104B900008B5184B1B69174B4FF0FF321A61154BC4
:104BA0001B69144B00221A61124B1B69114BDB6805
:104BB000104B4FF0FF32DA600E4BDB680D4B0022DA
:104BC000DA600C4BDB680B4BDB690A4A43F080531D
:104BD000D361084BDB69074BDB69064A43F000638E
:104BE000D361044BDB69FFF7C3FF00F0C1F8FFF7A7
:104BF0009FFF08BD00100240000000000000000000
:104C00001F4B1B681E4A43F0010313601C4B1B68BB
:104C100003F00203002BF9D0194B1B68184A03F06C
:104C2000F9031360164B00225A60154B5B6803F0C2
:104C30000C03002BF9D1124B5B68114A43F420138B
:104C400053600F4B1B680E4A43F0807313600C4B8C
:104C50001B6803F00073002BF9D0094B094A5A6016
:104C6000094B11221A60064B5B68054A43F00203A8
:104C70005360034B5B6803F00C03082BF9D17047BA
:104C800000100240006468000020024000000000A4
:104C900008B502F045FC044800F07AF902F070FC17
:104CA00004F0FEF908BD00BF4CA800080000000099
:104CB00008B502F035FC044800F06AF902F060FC27
:104CC00004F0EEF908BD00BF5CA800080000000079
:104CD00008B502F025FC044800F05AF902F050FC37
:104CE00004F0DEF908BD00BF6CA800080000000059
:104CF00008B502F015FC044800F04AF902F040FC47
:104D000004F0CEF908BD00BF7CA800080000000038
:104D100008B502F005FC044800F03AF902F030FC56
:104D200004F0BEF908BD00BF8CA800080000000018
:104D300008B502F0F5FB044800F02AF902F020FC67
:104D400004F0AEF908BD00BF9CA8000800000000F8
:104D500008B502F0E5FB044800F01AF902F010FC77
:104D600004F09EF908BD00BFACA8000800000000D8
:104D700082B0114B00221A600F4B00225A600023B0
:104D8000019310E00D4A019B1B01134404331B687F
:104D900000221A60084A019B0133002142F83310B7
:104DA000019B01330193019B062BEBDD044B4FF07C
:104DB000FF325A6002B07047600D00204CA8000816
:104DC00000000240000000000000000000000000A1
:104DD00000B58BB0039002910192009302F008FCA1
:104DE000039B062B06D8039B0893039B0793089B02
:104DF000099364E0364802F0DBFA002364E0012204
:104E0000099B02FA03F30693324B1A68069B134080
:104E1000002B51D1099B1B012F4A134405932D49A7
:104E2000099B0133019A41F833202A4A099B013337
:104E3000DB001344009A5A60264B1A68069B134302
:104E4000244A1360069B03F07F03002B07D0234BFB
:104E50005B69224A43F001035361204B5B69019B6C
:104E6000002B12D01B4B5A68059B9B681340002BEC
:104E700005D1059BDB7B02991846FFF7E1FD154B39
:104E80005A68069B1343134A5360059B5B681A6874
:104E9000059B5B6822F00F021A60059B5B7B1A463C
:104EA0000E2303FA02F2059B1B685A60059B5B68A0
:104EB00000221A60059B07E0099B01330993099AB8
:104EC000079B9A429BD9002318460BB05DF804FB60
:104ED000BCA80008600D00204CA80008001002408B
:104EE00000B585B00190019B9B7B0393019B002B38
:104EF0000CBF01230023DBB2002B02D0204802F0BC
:104F000057FA204B1A680121039B01FA03F3DB4394
:104F100013401C4A13601B4B5A680121039B01FA82
:104F200003F3DB431340174A5360164B5A68019B47
:104F30009B681340002B04D1019BDB7B1846FFF7D5
:104F4000AFFD104A039B0133002142F833100D4A94
:104F5000039B0133DB00134400225A60094B1B689A
:104F600003F07F03002B07D1074B5B69064A23F050
:104F700001035361044B5B6905B05DF804FB00BF9E
:104F8000CCA80008600D00200010024000000000C6
:104F900000B585B00190019B9B7B0393019B1B682F
:104FA0001B68019A527BD34003F00E030293019BCE
:104FB0005B681A68029B1340002B1CD0019B5B7B33
:104FC0001946019B1B68029A8A405A600B4A039B50
:104FD000013352F83330002B0DD0084A039B0133C4
:104FE00052F833200549039B0133DB000B445B6817
:104FF00002991846904705B05DF804FB600D00204B
:1050000082B00190224B9B69214A43F07D0393615A
:105010001F4B9B691F4A019B1B68D3601D4A019B64
:105020009B6853601B4A019B5B6813601A4A019B93
:10503000DB68D360184A019B5B695360164A019B89
:105040001B691360154A019B9B69D360134A019B3E
:105050001B6A5360114A019BDB691360104A019B74
:105060005B6AD3600E4A019BDB6A53600C4A019B6A
:105070009B6A13600B4A019B1B6BD360094A019B1F
:105080009B6B5360074A019B5B6B136002B07047D8
:105090000010024000080140000C014000100140D7
:1050A0000014014000180140000000000000000052
:1050B0008AB0039002910192019B032B03D1039BC1
:1050C000029A1A6105E0019B042B02D1039B029A0C
:1050D0005A61294A019B13441B78049300230693C9
:1050E000069B0793079B0893089B0993002305934E
:1050F0002DE0089B1B010893099B1B010993069B4C
:105100001B010693079B1B010793029B03F080037F
:10511000002B04D1089B43F00F03089303E0069A89
:10512000049B13430693029B03F40043002B04D11A
:10513000099B43F00F03099303E0079A049B134371
:105140000793029B5B000293059B01330593059B2C
:10515000072BCED9039B5A68099B1A40079B1A4319
:10516000039B5A60039B1A68089B1A40069B1A43CC
:10517000039B1A600AB07047DCA80008000000001A
:1051800000B583B003460091ADF80630009B4FF6A2
:10519000FF7293428CBF01230023DBB2002B02D0AD
:1051A000064802F005F9009B9AB2BDF80630134498
:1051B0009BB2184603B05DF804FB00BF10A90008BD
:1051C00082B00346ADF806300B46ADF80430134606
:1051D000ADF80230BDF80620BDF80430D31A9AB2FB
:1051E000BDF80210BDF80430CB1A9BB29A4234BF0E
:1051F00001230023DBB2184602B070470000000014
:1052000000B583B030230193019B83F3118802F032
:10521000E7F803B05DF804FB0000000000000000A8
:1052200000B583B002F004F900230193019B83F3DE
:10523000118803B05DF804FB0000000000000000CE
:1052400000B583B030230193019B83F3118802F0F2
:1052500017F903B05DF804FB000000000000000037
:1052600000B583B002F034F900230193019B83F36E
:10527000118803B05DF804FB00000000000000008E
:10528000024B9B8B9BB21846704700BFA00F0020BB
:1052900000B583B00190019802F08AF803B05DF880
:1052A00004FB00BF00000000000000000000000040
:1052B00008B5FFF7A5FF08BD0000000000000000D2
:1052C00008B5FFF7ADFF08BD0000000000000000BA
:1052D00008B5FFF7B5FF08BD0000000000000000A2
:1052E00008B5FFF7BDFF08BD00000000000000008A
:1052F00008B5FFF7C5FF0346184608BD00000000CB
:1053000000B583B003460091ADF80630BDF8063015
:1053100000991846FFF734FF0346184603B05DF8BE
:1053200004FB00BF000000000000000000000000BF
:1053300000B583B00346ADF806300B46ADF8043037
:105340001346ADF80230BDF80220BDF80410BDF8D8
:1053500006301846FFF734FF0346184603B05DF8E1
:1053600004FB00BF0000000000000000000000007F
:1053700000B583B0019000910099019803F020F9E5
:105380000346184603B05DF804FB00BF00000000B0
:1053900000B583B0019000910099019803F038F9AD
:1053A00003B05DF804FB00BF000000000000000037
:1053B00084B00190019B5B6B0393039B4FF400420D
:1053C0001A60039B00221A60039B00225A60039B11
:1053D00000225A61019B1B6B5B681A68019B1B6B67
:1053E0005B6822F00F021A60019B1B6B5B7B1A4605
:1053F0000E2303FA02F2019B1B6B1B685A60019B90
:10540000DB6A5B681A68019BDB6A5B6822F00F024B
:105410001A60019BDB6A5B7B1A460E2303FA02F2D9
:10542000019BDB6A1B685A6004B0704700000000F3
:1054300000B587B00190019B5B6B0493019B5B6897
:105440005B680393019B5B681B7A8DF80B30019BB3
:10545000002B0CBF01230023DBB2002B07D1039BE1
:10546000002BD4BF01230023DBB2002B01D001238A
:1054700000E00023002B08D1039B3C4A9342CCBFA1
:1054800001230023DBB2002B02D0394801F090FF4A
:10549000049B5A684FF6C0731340049A5360049BF0
:1054A0005B6843F01802049B5A600023ADF8143087
:1054B00040F6FF73ADF81630039B2E4A934214DC7E
:1054C000039B5B002C4A92FBF3F3ADF81630BDF85A
:1054D0001630C3F30B039AB2BDF814301343ADF882
:1054E0001430049B19221A6238E0039B1F4A93422E
:1054F00034DC9DF80B30022B09D1039A13465B0074
:1055000013441D4A92FBF3F3ADF8163014E09DF8F6
:105510000B30032B10D1039A13469B0013449A00BF
:105520001344154A92FBF3F3ADF81630BDF814306E
:1055300043F48043ADF81430BDF81630C3F30B03C9
:105540009AB2BDF8143013439BB26FEA43436FEA3B
:105550005343ADF81430049B08221A62BDF814209E
:10556000049BDA6107B05DF804FB00BF801A0600F7
:10557000FCA80008A086010000366E0100000000B3
:1055800086B00190019B5B6B0493019B5B681B7869
:105590008DF80F30049B1B68ADF816309DF80F3066
:1055A000032B1AD0032B1EDC012B02D0022B07D0B9
:1055B00019E0BDF8163023F00A03ADF8163012E0FA
:1055C000BDF8163043F00203ADF81630BDF81630C2
:1055D00023F00803ADF8163005E0BDF8163043F0AF
:1055E0000A03ADF81630BDF81620049B1A6006B009
:1055F000704700BF00000000000000000000000035
:1056000000B587B00190019B5B6B0593059B9B697F
:105610000493059B5B690393049B1A04039B134348
:1056200003F0FF13744A934200F0A380724A93423E
:1056300000F2D780714A934200F08A806F4A934209
:1056400000F2CF80B3F1011F36D0B3F1011FC0F0DB
:10565000C8806B4A934200F2C480B3F5403F40F2E9
:10566000C080A3F54033013B102B00F2BA8001A2A9
:1056700052F823F0B95600080B570008E35700080A
:10568000E3570008E3570008E3570008E357000812
:10569000FB560008E3570008E3570008E3570008EB
:1056A000E3570008E3570008E3570008E3570008F2
:1056B000E3570008CD570008019B1B8C1B0A9BB2C7
:1056C000002B14D0019B1B8C1B0A9BB203F006031A
:1056D0009AB2019B1B8C03F001039BB213439BB254
:1056E00043F0F0039BB21A46059B1A6179E0019BD7
:1056F0001B8C1A46059B1A6173E0019B1B8C5B088F
:105700009BB2DAB2059B1A616BE0059B5B6823F4E0
:105710000072059B5A60019BDB6A5B681A68019BFB
:10572000DB6A5B6842F001021A60059B5B6843F428
:105730008052059B5A60019BDB6A5B685B68012BAA
:105740004ED8059B1B6823F48062059B1A6048E0D5
:10575000059B5B6823F40072059B5A60019B1B6BE1
:105760005B681A68019B1B6B5B6842F001021A6060
:1057700037E0059B1B69019BDB6A5B685B68002B5C
:105780000DD0019B1B8C43F001039AB2019B1A843C
:10579000059B1B6843F4A062059B1A6028E0059BEB
:1057A0005B6823F40072059B5A60059B1B6843F4F9
:1057B0000072059B1A60FFF78BFD019B1C330021D3
:1057C0001846FFF7E5FDFFF78BFD0AE00198FFF7AC
:1057D000EFFD059B5B6823F40072059B5A6000E0B7
:1057E00000BF039B03F00A03002B01D0059B9B69BC
:1057F00007B05DF804FB00BF8400070082000700CB
:105800001100030000000000000000000000000084
:1058100000B585B001900091019B5B6B0393009BE9
:1058200003F00803002B02D01B48FFF731FD019B5A
:10583000DB6A5B681A68019BDB6A5B6822F00F0217
:105840001A60019BDB6A5B7B1A460E2303FA02F2A5
:10585000019BDB6A1B685A60039B5B6823F48052E0
:10586000039B5A60039B1B6823F48062039B1A60AE
:10587000039B1B6843F40072039B1A60FFF728FD2B
:10588000019B1C3300211846FFF782FDFFF728FD1E
:1058900005B05DF804FB00BFF0A8000800000000A0
:1058A00000B585B001900091019B5B6B0393009B59
:1058B00003F00803002B02D01048FFF7E9FC019B1E
:1058C0001B6B5B681A68019B1B6B5B6822F00F0205
:1058D0001A60019B1B6B5B7B1A460E2303FA02F2D4
:1058E000019B1B6B1B685A60039B5B6843F400724F
:1058F000039B5A6005B05DF804FB00BFF0A80008E8
:1059000000B583B001900B46ADF80230019B1B6BD4
:105910005B681A68019B1B6B5B6822F00F021A60C0
:10592000019B1B6B5B7B1A460E2303FA02F2019B61
:105930001B6B1B685A60019BDB6A5B681A68019BE2
:10594000DB6A5B6822F00F021A60019BDB6A5B7BFB
:105950001A460E2303FA02F2019BDB6A1B685A60A7
:10596000019B00229A60BDF8023003F48073002B83
:1059700005D0019B9B6843F00102019B9A60BDF832
:10598000023003F40073002B05D0019B9B6843F0A9
:105990000202019B9A60BDF8023003F48063002B81
:1059A00015D0019B5B6B5A68019B5B6B22F4007204
:1059B0005A60019B5B6B1A68019B5B6B42F400723F
:1059C0001A60019B9B6843F00402019B9A60BDF83A
:1059D000023003F40063002B05D0019B9B6843F069
:1059E0000802019B9A60BDF8023003F48043002B4B
:1059F00005D0019B9B6843F02002019B9A60BDF893
:105A0000023003F48053002B05D0019B9B6843F0C8
:105A10001002019B9A60BDF90230002B05DA019B50
:105A20009B6843F04002019B9A60019B9B68002B9E
:105A30000AD0FFF74DFC019B1C336FF001011846A3
:105A4000FFF7A6FCFFF74CFC03B05DF804FB00BFBA
:105A500008B501F065FD0448FFF7D2FD01F090FDA7
:105A600003F01EFB08BD00BFA00D002000000000D9
:105A700000B583B00D4B5B6B5B69ADF8063001F090
:105A80004FFDBDF8063003F45F43DA43074B5B6B11
:105A90005A61BDF8063019460448FFF731FF01F09E
:105AA0006FFD03F0FDFA03B05DF804FBA00D0020CC
:105AB00008B501F035FD0448FFF7A2FD01F060FDD7
:105AC00003F0EEFA08BD00BFD80D00200000000072
:105AD00000B583B00D4B5B6B5B69ADF8063001F030
